:020000040800F2
:10000000E0150020DD010008551A0008411600081F
:10001000F9190008710300083D2B000800000000DA
:100020000000000000000000000000004501000882
:100030007303000800000000890100088521000802
:10004000F7010008F7010008F7010008F7010008B0
:10005000F7010008F7010008F7010008F7010008A0
:10006000F7010008F7010008F7010008F701000890
:10007000F7010008F7010008F7010008F701000880
:10008000F7010008F7010008F7010008F701000870
:10009000F7010008F7010008F7010008F701000860
:1000A000F7010008F5240008F7010008F70100082F
:1000B00001250008F7010008F7010008F701000812
:1000C000F7010008F7010008F7010008F701000830
:1000D000F701000831290008592900088129000882
:1000E000F7010008F7010008F7010008F701000810
:1000F000F7010008F7010008F7010008F701000800
:10010000F7010008F7010008F7010008F7010008EF
:1001100005260008F7010008F7010008F7010008AC
:10012000F7010008F7010008F7010008F7010008CF
:10013000DFF80CD000F00AF900480047952D0008C0
:10014000E0150020224B19680868B0E8F00F80F332
:100150000988BFF36F8F4FF0000080F311884EF0D5
:100160000D0E70470000000006480068006880F32C
:10017000088862B661B6BFF34F8FBFF36F8F00DFA1
:1001800000BF00BF08ED00E0EFF30980BFF36F8F01
:100190000F4B1A6820E9F00F106008B54FF05000BF
:1001A00080F31188BFF34F8FBFF36F8F03F0D4F943
:1001B0004FF0000080F31188BDE808401968086816
:1001C000B0E8F00F80F30988BFF36F8F704700BF6E
:1001D00084000020EFF30580704700000648804748
:1001E00006480047FEE7FEE7FEE7FEE7FEE7FEE71C
:1001F000FEE7FEE7FEE7FEE7FD210008310100080B
:1002000040EA01039B0703D009E008C9121F08C098
:10021000042AFAD203E011F8013B00F8013B521E18
:10022000F9D27047D2B201E000F8012B491EFBD28F
:1002300070470022F6E710B513460A4604461946F1
:10024000FFF7F0FF204610BD80EA010210B502F072
:100250000043400022D04A001FD0010E01EB126182
:10026000C0F35600C2F3560240F4000042F400020C
:10027000A0FB022000047F39140400D0401C50EA87
:10028000124001D44000491EC2B20C0604EBD0104B
:10029000401C4008802A02D003E0002010BD20F05E
:1002A0000100002900DA0020184310BD9623002227
:1002B000114600F01DB820F00040C10DC0F316003B
:1002C00040F400007F2901DA00207047962903DC02
:1002D000C1F19601C840704796398840704700299F
:1002E000A8BF7047401C490008BF20F001007047BC
:1002F00010B4B0FA80FC00FA0CF050EA010404BF1C
:1003000010BC704749B1CCF1200421FA04F411FA71
:100310000CF118BF012121430843A3EB0C01CB1DB5
:100320004FEA00614FEA102042BF002010BC704726
:1003300000EBC35010440029A4BF10BC7047401C00
:10034000490008BF20F0010010BC7047064C074D63
:1003500006E0E06840F0010394E807009847103495
:10036000AC42F6D3FFF7E8FE043900082439000850
:10037000FEE7704710B5082002F060FD0021017013
:100380000149416010BD00008D03000870B50C46A6
:1003900005460421044800F033FA207028702078C4
:1003A000002800D0012070BD0014014010B50820C5
:1003B00002F044FD012101700149416010BD0000BF
:1003C000C503000870B50C4605464FF4805105483A
:1003D00000F016FA207028702078002800D0012044
:1003E00070BD0000001001407047000070B51E4D48
:1003F0001E4C0122286821680079087028680321B2
:1004000082724172C272836A00F10B0198471848E8
:1004100018494FF4FA760068007810B1012821D00D
:100420001CE00868418D3939B1F5386F05D3826D0C
:100430000A219047304600F0DDF82068017821B1AC
:10044000012905D0022909D105E00021426804E014
:100450000121426801E0426802219047296800209A
:10046000887070BD0868E2E73C000020340000207E
:10047000200000203000002010B5040002D0607978
:1004800010B106E0012010BD00202071204600F0D0
:1004900005F801206071002010BD000008B500685B
:1004A0000649884208D10648416941F0400141614E
:1004B000406900F04000009008BD0000003002409C
:1004C000001002402DE9F05F90F82110002402296D
:1004D00003D004218163012485E001680A6822F0C9
:1004E0000E020A6001680A6822F001020A603F4EAB
:1004F0003E4FB215DFF8F4C0DFF8F090DFF8ECA063
:10050000DFF8E8B0DFF8E4E00168783F1301150296
:10051000ACF1640CA9F15009AAF13C0AABF1280B2B
:10052000AEF1140E4FF48018B14227D9B9420ED063
:10053000614512D049451DD0514518D0594518D0B4
:10054000714501D1424615E0294EB14201D1012247
:1005500010E0274E1436B14201D110220AE0244E99
:100560002836B14206D0224A3C32914201D11A4685
:1005700000E02A461E49091F0A602BE0B94213D049
:10058000614517D0494522D051451DD059451DD050
:10059000714501D142461AE0B14202D14FF080725A
:1005A00015E0134EB14201D1012210E0104E143675
:1005B000B14201D110220AE00D4E2836B14206D0D8
:1005C0000B4A3C32914201D11A4600E02A460749C3
:1005D00080394A60012180F82110002180F8201024
:1005E000416B01B188472046BDE8F09F8000024082
:1005F0000804024070B5044600F00CF90546601C82
:1006000002D004480078044400F004F9401BA042E2
:10061000FAD370BD780000202DE9F84FDFF8B8A1BB
:1006200000220AF1040B144601274FF00F090BF1C9
:10063000040E00BF0B6807FA04F52B40AB4274D1DF
:10064000DFF898C14E68A6EB0C0866452BD00DDC90
:10065000032E34D005DC36B3012E19D0022E2FD153
:100660001BE0112E16D0122E2AD119E0B8F5881FE2
:1006700019D006DCB8F5803F15D0B8F5801F1FD122
:1006800011E0B8F5001F0ED0B8F5041F18D10AE02C
:10069000CA6815E0CA68121D12E0CA6808320FE085
:1006A000CA680C320CE08A682AB1012A4FF00802AD
:1006B00003D0456104E0042202E0056100E000226D
:1006C000FF2B01D8064601E000F104064FEA84053D
:1006D00001D9A5F12005D6F800C009FA05F82CEAE1
:1006E000080C02FA05F54CEA050CC6F800C04D6886
:1006F000ED006AD53A4DAE6946F00106AE61AD69CE
:1007000024F0030605F001050095364D06EB050CB7
:10071000DCF80850A6074FEA167809FA08F6B54340
:10072000314EB04202D100261AE04EE02F4EB042C8
:1007300001D1012614E02E4EB04201D102260FE075
:100740002C4EB04201D103260AE02B4EB04201D11B
:10075000042605E0294EB04201D1052600E0062618
:1007600006FA08F62E43CCF808604D68DAF8006007
:10077000ED03554601D51E4300E09E432E604D68B3
:10078000AD0305D5DBF800601E43CBF8006004E044
:10079000DBF800509D43CBF800504D68DEF8006058
:1007A000ED02754601D51E4300E09E432E604D6864
:1007B000AD0205D5084D0C352E681E432E6004E0B1
:1007C000054E0C3635689D433560641C102CFFF4D3
:1007D00031AFBDE8F88F00000004014000001110A7
:1007E000001002400000014000080140000C0140E0
:1007F000001001400014014000180140001C01409D
:100800008068084000D0012070470AB1016170473C
:100810000904FBE701488068704700007800002069
:100820000248816802781144816070477800002096
:10083000074810B5016841F010010160032000F085
:1008400093F8002000F006F800F03EF8002010BDFC
:100850000020024000B5014687B00022192000F0B8
:1008600063F8192000F054F81348816941F40061DD
:100870008161806905A900F400600690684600F077
:100880003BF900F069F90D490D4AB0FBF1F10D4853
:10089000491E0260416040F2E7320021C0E90321B5
:1008A000816000F04FFB10B1012007B000BD05488A
:1008B00000F080FBF9E700000010024040420F000A
:1008C000002C0140AC0200200F4808B5816941F0BE
:1008D00001018161816901F001010091C16941F06B
:1008E0008051C161C069002200F0805000900F214A
:1008F000901E00F019F80548416821F0E06141F0D0
:100900000071416008BD000000100240000001407D
:1009100000F01F02012191404009800000F1E02019
:10092000C0F8001170470000F0B40E4B1B680C4675
:10093000C3F30223C3F10705042D00D90425191DB3
:10094000072901D2002300E0DB1E012606FA05F18B
:10095000491E214099409E40761E16403143F0BC0E
:1009600001F079B80CED00E0064900F007020868D4
:100970004FF6FF03184040EA0220034A1043086084
:10098000704700000CED00E00000FA052DE9F0478B
:10099000DFF8548105460E46D8F8000000F0070045
:1009A000B0420CD2D8F8001021F007013143C8F84A
:1009B0000010D8F8000000F00700B0426FD128689E
:1009C0004A4C810712D5400703D5606840F4E060C7
:1009D00060602878000703D5606840F4605060606C
:1009E0006068A96820F0F000084360602878C007BC
:1009F00044D06868012816D02168022816D08907DB
:100A000000294CDA616821F0030101436160FFF7BE
:100A100001FF6968074641F2883001290ED002299A
:100A2000814618D026E021688903E9E78901E7E7D4
:100A3000FFF7F0FEC11B494501D918E08146606807
:100A4000C0F381000128F3D118E000BFFFF7E2FEF8
:100A5000C11B49450BD86068C0F381000228F5D15D
:100A60000CE000BFFFF7D6FEC11B494502D90320A9
:100A7000BDE8F087606810F00C0FF3D1D8F80010D3
:100A8000404601F00701B1420BD9016821F007018E
:100A900031430160006800F00700B04201D001203E
:100AA000E6E72878400705D56068E96820F4E0604B
:100AB000084360602878000706D56068296920F43B
:100AC000605040EAC100606000F056F86168084A72
:100AD000C1F30311515CC840064908600020FFF7CC
:100AE000B9FE0020C4E700000020024000100240D0
:100AF00098380008740000200F2202600C4A5368E6
:100B000003F003034360536803F0F003836053680A
:100B100003F4E063C36052684FF4E06303EAD20277
:100B200002610448006800F0070008607047000098
:100B3000001002400020024004480549006849684E
:100B4000044AC1F30221515CC84070477400002080
:100B500000100240A83800080448054900684968A8
:100B6000044AC1F3C221515CC840704774000020A0
:100B700000100240A838000813A185B00FC98DE805
:100B80000F0015A0154A00680490516801F00C0090
:100B9000042804D0082804D0114805B07047114833
:100BA000FBE7C1F38343C9031DF8030009D551686E
:100BB00004AAC1F34041515C0A4A5043B0FBF1F032
:100BC000EBE709494843E8E702030405060708097B
:100BD0000A0B0C0D0E0F1010010200000010024055
:100BE00000127A00001BB70000093D002DE9F84F04
:100BF00004460078B94DC00748D06868C0F381004A
:100C0000012807D06868C0F38100022809D168680C
:100C1000C00306D52868800338D5606800286FD0E7
:100C200034E06068B0F5803F0BD010B1B0F5A02F74
:100C300011D0286820F480302860286820F48020B3
:100C400002E0286840F480302860606888B1FFF7CF
:100C5000E1FD064609E0286840F480202860F0E7BE
:100C6000FFF7D8FD801B642875D828688003F7D566
:100C70000CE0FFF7CFFD064605E000BFFFF7CAFD19
:100C8000801B6428F0D828688003F7D42078944E1D
:100C900080074FF001094FF000083BD5686810F05D
:100CA0000C0F07D06868C0F38100022809D168687A
:100CB000C00306D42868800714D5206901281FD1F5
:100CC00010E02069B0B1C6F80090FFF7A3FD074619
:100CD00005E000BFFFF79EFDC01B0228C4D82868AE
:100CE0008007F7D52868616920F0F80040EAC10064
:100CF00028600FE0C6F80080FFF78CFD074606E08D
:100D0000E9E000BFFFF786FDC01B022823D8286852
:100D10008007F7D4207800072CD57248A169D9B193
:100D2000C0F80090FFF776FD074604E0FFF772FD7C
:100D3000C01B02280FD8686A8007F7D56A484FF4AD
:100D4000FA510068B0FBF1F0009000BF0098411E1E
:100D50000091FAD20EE080E0C0F80080FFF75AFD63
:100D6000074604E0FFF756FDC01B022875D8686AE5
:100D70008007F7D42078400760D5E8690027C000D5
:100D800008D4E86940F08050E861E869012700F084
:100D90008050009055480168C90513D40168834606
:100DA00041F480710160FFF735FD824606E000BF27
:100DB000FFF730FDA0EB0A0064284ED8DBF80000F6
:100DC000C005F5D5E06801280AD008B1052813D080
:100DD000286A20F001002862286A20F0040002E05E
:100DE000286A40F001002862E06841F2883B98B12F
:100DF000FFF710FD82460BE0286A40F004002862ED
:100E0000EEE700BFFFF706FDA0EB0A0159455AD8EF
:100E1000286A8007F6D50CE0FFF7FCFC824605E067
:100E2000FFF7F8FCA0EB0A0159454CD8286A800767
:100E3000F6D41FB1E86920F08050E861E06988B31A
:100E40006968C1F38101022945D00228C6F8608093
:100E500004D0FFF7DFFC044638E034E0FFF7DAFCAB
:100E6000074604E0FFF7D6FCC01B02282BD82868F1
:100E70008001F7D4206AB0F5803F05D16868A16889
:100E800020F4003008436860D4E908010843696829
:100E900021F4741108436860C6F86090FFF7BAFC4B
:100EA000044606E015E000BFFFF7B4FC001B022873
:100EB00009D828688001F7D50BE000BFFFF7AAFC2E
:100EC000001B022802D90320BDE8F88F28688001A2
:100ED000F4D40020F8E70120F6E7000000100240FB
:100EE0000000424280044242740000200070004032
:100EF0007047704730B590F83C20012A20D001227D
:100F000080F83C20022380F83D3003685C6824F0C0
:100F100070045C6003685C680D682C435C60036867
:100F20009C6824F080049C6003689C6849680C43BA
:100F30009C6080F83D20002180F83C10084630BDC0
:100F4000022030BD10B5040003D094F83D0010B16C
:100F500007E0012010BD002084F83C00204600F08E
:100F60000DF8022084F83D00211D206801F0CEFA22
:100F7000012084F83D00002010BD000008B5006885
:100F8000B0F1804F12D10A48C16941F00101C1613D
:100F9000C069002200F00100009006211C20FFF72C
:100FA000C3FCBDE808401C20FFF7B2BC08BD000030
:100FB000001002400168CA6842F00102CA6000687D
:100FC000016841F001010160002070470168CA68B2
:100FD00022F00102CA600068016A41F21112114256
:100FE00007D1016A9210114203D1016821F0010179
:100FF00001600020704770B5044690F83C0001285D
:1010000017D0012584F83C50022084F83D00206868
:10101000826822F0770222F47F42826008685028BA
:1010200037D00DDC202859D005DC88B3102841D1F9
:1010300051E0022070BD302853D040283AD13FE023
:1010400060282ED070280BD0B0F5805F03D0B0F5AB
:10105000005F2FD110E02068816821F0070115E0C2
:10106000CB68D1E90121206801F096FA21688868EF
:1010700040F0770088601DE0CB68D1E9012120684D
:1010800001F08AFA2068816841F48041816011E0B2
:101090001EE0CA684968206801F090FA5021206873
:1010A00006E0CA684968206801F099FA6021206862
:1010B00001F07CFA84F83D50002084F83C0070BDBB
:1010C000CA684968206801F079FA40212068EFE792
:1010D00000212068ECE710212068E9E72021206842
:1010E000E6E730212068E3E7704770B50446006802
:1010F00001694FF00005C943890715D4C168C94388
:10110000890711D4E91E01610120207720688069D8
:101110008007204602D0FFF7E7FF04E000F098F8D0
:10112000204600F096F8257720680169C9434907F1
:1011300017D4C168C943490713D46FF00401016192
:10114000022020772068806910F4407F204602D07A
:10115000FFF7CAFF04E000F07BF8204600F079F8C2
:10116000257720680169C943090716D4C168C943B6
:10117000090712D46FF0080101610420207720686C
:10118000C0698007204602D0FFF7AEFF04E000F000
:101190005FF8204600F05DF8257720680169C943B3
:1011A000C90617D4C168C943C90613D46FF010012A
:1011B0000161082020772068C06910F4407F204634
:1011C00002D0FFF791FF04E000F042F8204600F063
:1011D00040F8257720680169C943C90708D1C1686B
:1011E000C943C90704D1891E0161204600F032F8C5
:1011F00020680169C943090609D4C168C9430906C1
:1012000005D46FF0800101612046FFF771FE206870
:101210000169C943490609D4C168C943490605D4CF
:101220006FF040010161204600F02EF8206801694E
:10123000C94389060BD4C168C943890607D46FF036
:10124000200101612046BDE87040FFF752BE70BD2D
:101250007047704710B5044600680949884201D1BB
:10126000FFF7DEFA2068B0F1804F08D10548017819
:10127000491CC9B20170202901D90021017010BD9B
:10128000002C0140000000207047704770B50268D4
:1012900004461068D168536910F00F0F50D003F066
:1012A000010501F4907635435DD0C20705D0CA052B
:1012B00003D5E26B42F00102E263420705D5DA078B
:1012C00003D0E26B42F00202E263820705D5DA073F
:1012D00003D0E26B42F00402E263020705D5DA07AD
:1012E00003D0E26B42F00802E263E26B002A33D0E3
:1012F000800604D5880602D5204601F0B1F92068A1
:101300004069E16BC0F38010090700D428B3204680
:1013100001F098F92068416949061AD5416921F020
:1013200040014161606BA0B11B494163606BFFF7F5
:10133000C9F8002810D0606B416BBDE870400847C9
:10134000830610D58B060ED52046BDE8704001F00F
:1013500087B92046FFF799FF70BD2046FFF795FF3C
:101360000020E06370BD030606D50B0604D52046B9
:10137000BDE8704001F078BA4006F3D54806F1D5D3
:10138000D168204621F04001D160202184F8391035
:1013900000F055F970BD00003526000870B5040056
:1013A00004D094F83900002510B106E0012070BD8A
:1013B00084F83850204600F023F8242084F83900BF
:1013C0002068C16821F40051C160204601F094F901
:1013D0002068016921F4904101612068416921F090
:1013E0002A0141612068C16841F40051C160E56390
:1013F000202084F8390084F83A00002070BD0000F5
:10140000F0B585B00024009401940294039403681D
:101410005848574E051502210322C714B34225D15F
:10142000C36943F40023C361C36903F40023049335
:10143000836943F0100383618069CDE9005100F0B6
:101440001000CDE903204C4D69462846FFF7E4F82B
:10145000CDE90074694628460294FFF7DDF80022C2
:1014600007213420FFF760FA342029E0DFF80CC1AF
:10147000434E634528D1836943F480438361836984
:1014800003F480430493836943F004038361806918
:10149000039200F0040004907015CDE90001694644
:1014A0003046FFF7B9F8CDE900546946304602945A
:1014B000FFF7B2F8002205212520FFF735FA252095
:1014C000FFF726FA05B0F0BDDFF8B8C0634526D1B6
:1014D000C36943F40033C361C36903F40033049365
:1014E000836943F0040383618069039200F0040080
:1014F00004900420CDE9000169463046FFF78CF8DE
:101500000820CDE90004694630460294FFF784F8CC
:10151000002206212620FFF707FA2620D0E71A4EE0
:10152000B342CFD1C36943F48023C361C36903F4D9
:1015300080230493836943F0080383618069CDE9C4
:10154000005100F00800CDE90320104D69462846FF
:10155000FFF762F8CDE90074694628460294FFF768
:101560005BF8002206212720FFF7DEF92720A7E7F6
:10157000004C0040001002400010014000380140C3
:10158000000801400044004000480040000C0140B9
:1015900070472DE9F843044690F839001F46164677
:1015A0000D46202802D00220BDE8F8836DB166B157
:1015B0004FF00008C4F83C80212084F83900FFF780
:1015C00029F9A6848146E68425E00120ECE7E08C39
:1015D000401EE084A0684B46B0F5805F4FF00002EB
:1015E0004FF080012046009703D001F06EF9E8B972
:1015F0000DE001F06AF9C8B928882168C0F3080035
:101600004860206908B16D1C05E0AD1C03E021684D
:1016100015F8010B4860E08C0028D8D14B46002219
:1016200040212046009701F050F908B10320BBE7A4
:10163000202084F8390084F838800020B4E770470F
:10164000FEE7000010B5094C012211462046FFF7C5
:10165000DCF80A20FEF7CEFF002201212046FFF72A
:10166000D4F8BDE810400A20FEF7C4BF00100140C6
:1016700010B5082001F0E2FB012101700149416031
:1016800010BD0000891600082DE9F041124C00261B
:10169000DFF8488020780D46012720B12021404600
:1016A000FFF7AEF830B120214046FFF7A9F8012836
:1016B0000DD00EE00A20FEF79DFF26702021404647
:1016C000FFF79EF828B92F700120BDE8F081277040
:1016D0002E700020F9E700000B00002000100140F0
:1016E000074910B5054808600846FEF7C5FE002802
:1016F00003D0BDE81040FEF777BE10BD00300240B9
:101700001000002010B5A4B0142227496846FEF747
:1017100077FD0021684601F0D3FB244C22491422B6
:10172000A062143105A8FEF76BFD002105A801F0A9
:10173000C7FB1D49E062142228310AA8FEF760FDAC
:1017400000210AA801F0BCFB1749206314223C3198
:101750000FA8FEF755FD00210FA801F0B1FB1249BB
:1017600060631422503114A8FEF74AFD002114A82A
:1017700001F0A6FB0C49A0631422643119A8FEF7FE
:101780003FFD002119A801F09BFB0749E0631422EB
:1017900078311EA8FEF734FD00211EA801F090FB51
:1017A000206424B010BD00000C3800081800002090
:1017B0002DE9F04385B00024384800940194029448
:1017C0000394816941F020018161816901F0200168
:1017D0000491816941F010018161816901F010017A
:1017E0000491816941F004018161816901F0040182
:1017F0000491816941F0080181618069284F00F0FE
:10180000080040F201250490002229463846FEF7E0
:10181000FCFFDFF890800022C2214046FEF7F5FF72
:10182000DFF88490002202214846FEF7EEFF009583
:10183000022601250396CDE9015469463846FEF794
:10184000EBFEC220CDE90005CDE9024669464046DF
:10185000FEF7E2FE4FF48150CDE9000469463846B8
:101860000294FEF7D9FECDE9005469464846029439
:10187000FEF7D2FECDE90065CDE90246694648464D
:10188000FEF7CAFE0420CDE9000469460748029429
:10189000FEF7C2FE05B0BDE8F08300000010024074
:1018A0000010014000080140000C014000140140FC
:1018B00010B586B000241748009401940294039454
:1018C00004944FF080410594016041F61F41C0E946
:1018D000011442F20F71C0E9031480218161FFF706
:1018E00031FB08B1FEF780FD4FF48050009069464F
:1018F0000848FFF780FB08B1FEF776FD049404A9C1
:1019000004480594FFF7F6FA002801D0FEF76CFDB5
:1019100006B010BD6C0100200C4810B50A490160EA
:101920004FF4E1314160002181600C22C160C0E9C7
:1019300004128161C161FFF731FD002803D0BDE8C9
:101940001040FEF751BD10BD004C0040AC0100201E
:101950000C4810B50A4901604FF4E13141600021A3
:1019600081600C22C160C0E904128161C161FFF78E
:1019700015FD002803D0BDE81040FEF735BD10BDB1
:1019800000380140EC0100200C4810B50A49016004
:101990004FF4E1314160002181600C22C160C0E957
:1019A00004128161C161FFF7F9FC002803D0BDE892
:1019B0001040FEF719BD10BD004400402C0200206D
:1019C0000C4810B50A4901604FF4E1314160002133
:1019D00081600C22C160C0E904128161C161FFF71E
:1019E000DDFC002803D0BDE81040FEF7FDBC10BDB3
:1019F000004800406C020020FEE7000010B50820FF
:101A000001F01CFA002101700149416010BD000085
:101A1000151A000810B50E4C017021B1012904D02F
:101A200002290CD10DE0002200E0012240212046D5
:101A3000FEF7EBFE002280212046FEF7E6FE0020A6
:101A400010BD002240212046FEF7DFFE0122F2E712
:101A50000008014070470907090E002806DA00F067
:101A60000F0000F1E02080F8141D704700F1E02025
:101A700080F80014704700002DE9F05F9A48FFF7E6
:101A8000A5FADFF868820026994988F8006088F88E
:101A900001600868DFF85CB2974D0078974C4FF012
:101AA00002094FF0010A10B1012820D017E1DBF83C
:101AB000000002214268904742F210763046FEF75D
:101AC00099FD28680021826D90473046FEF792FD0F
:101AD00020680321524680F80AA080F80990C1725C
:101AE000836A00F10B0198470120BDE8F09F84480C
:101AF0000068007810B1012810D0F0E020680421BF
:101B0000524680F80AA080F80990C172836A00F1F9
:101B10000B019847206886700320E6E700272868B5
:101B2000B421826D90477F1CFFB2032FF7D342F69A
:101B3000E060FEF75FFDCCE072480068007810B10D
:101B400001287DD081E06848FFF740FA88F80060FE
:101B5000DBF800000021426890476B4F0121386894
:101B6000026C904741F28830FEF744FD3868452109
:101B7000426C904720680421817280F8099039688E
:101B80008A89120AC2720A7B02730A8C120A427391
:101B900091F820108173836A042200F10B019847A9
:101BA000DBF8000002214268904740F6B830FEF7AB
:101BB00021FDDBF800000021426890473868412190
:101BC000426C904738680021026C904720680421DD
:101BD000817280F809903A689189090AC172117B73
:101BE0000173118C090A417392F820108173836A82
:101BF000042200F10B019847386814210830FEF7E1
:101C000018FB386814211C30FEF713FBDBF80000CA
:101C100002214268904743F69820FEF7EBFCDBF880
:101C20000000002142689047002728680021826D4B
:101C300090477F1CFFB2032FF7D342F6E06000E02D
:101C400008E0FEF7D7FC2068867098F801000128AC
:101C50003FD110E02448FFF7ADF998F8000047465F
:101C6000142806D2DBF800000121426890477E70FC
:101C70002FE088F801A01C48FFF7A8F988F8006059
:101C800020680521524680F80AA080F80990C172A8
:101C9000836A00F10B019847DBF800005F460221E0
:101CA0004268904744F25060FEF7A4FC3868002177
:101CB00042689047002728680021826D90477F1C6A
:101CC000FFB2032FF7D342F6E060FEF793FC2068E3
:101CD000867007480068007801287FF42DAF2068DF
:101CE0008670002001E700006C0100200000002049
:101CF0002000002034000020300000203C000020A4
:101D00001C000020180000203800002070B5214879
:101D1000214C0122006802250378206800F10B01A4
:101D20003BB11E4B1B681B78FBB1012B28D0002058
:101D300070BD827242720323C372836A9847184847
:101D4000022100684268904742F210763046FEF762
:101D500051FC144800210068826D90473046FEF720
:101D600049FC20688570012070BD82724272042394
:101D7000C372836A9847216800208870032070BD71
:101D800082724272C272836A98472068857004200A
:101D900070BD0000200000203C0000201C0000203E
:101DA000340000203000002070B50D480D4C012299
:101DB000006806230578206800F10B0115B1012D9C
:101DC00005D009E0827243720323C37202E082727B
:101DD0004372C272836A984721680020887070BD80
:101DE000200000203C0000202DE9F041174E184F44
:101DF000184C30680079012802D002280DD11BE070
:101E000000252068B421826D90476D1CEDB2032D32
:101E1000F7D33868022142689047306801220421D4
:101E200082724172C272836A00F10B019847316875
:101E300000208870BDE8F081002520680021826DB7
:101E400090476D1CEDB2032DF7D3E2E73C00002074
:101E50003400002030000020FFF70AFC164C206000
:101E6000FEF788FA6060FEF7A1FAA06000F0C6FEF7
:101E7000E06000F021FF206100F062FE606100F090
:101E80006FF8A061FFF7BAFDE06100F011FA20627F
:101E900000F08AFD60624FF47A70FEF7ABFB00BF82
:101EA000FFF7D0FBA069016E8847A069C16D884724
:101EB000012000F0F9FFF3E71800002040F2DC50A9
:101EC000FEF798FB044C606A807800F0BBF90120B3
:101ED00000F0EAFFF7E7000018000020084C206837
:101EE0000146426890476068014642689047A06892
:101EF000014642689047012000F0D6FFEFE700005E
:101F000018000020044C2946626C606A904701204A
:101F100000F0CAFFF7E7000018000020044C294633
:101F2000A26CA0699047012000F0BEFFF7E7000017
:101F300018000020044C2946E26C206A90470120DA
:101F400000F0B2FFF7E7000018000020034C606AC1
:101F5000416A8847012000F0A7FFF8E71800002039
:101F600010B5642000F06AFF044600202070054888
:101F7000A0650548E06505482066054800F096FE26
:101F8000204610BDE91F0008951F00088D2000089D
:101F900001210008002202214318491C93F838301F
:101FA000C9B21A44D2B21629F6D3D14390F84E20C2
:101FB000C9B28A4215D1B0F83D1020F82A1FB0F8F6
:101FC00015104180B0F817108180417E8171817EAB
:101FD000C171C17E0172417F4172C18B4181018C0F
:101FE00081810020704700001FB501700024084661
:101FF000FEF75CF92249FEF727F9FEF75CF9FF21AD
:102000008DF801108DF8001001218DF802100921C2
:102010008DF8031003218DF804102A218DF8051086
:102020008DF80600000A8DF8070000208DF80800E2
:102030008DF8090004218DF80A108DF80B0002209C
:1020400069460A5C401C2244C0B2D4B20C28F8D3C2
:10205000E0430C4C8DF80C00012202212046FEF7D3
:10206000D4FBFF230D2269460748FFF792FA0022AE
:1020700002212046FEF7C9FB04B0002010BD00007D
:1020800000003641000801402C0200201CB5FF2052
:102090008DF801008DF8000001208DF80200042069
:1020A0008DF8030002208DF8040038208DF805001B
:1020B000112000218DF8060002206A46135C401CA6
:1020C0001944C0B2C9B20728F8D3C8430A4C8DF8E6
:1020D0000700012202212046FEF797FBFF2308227A
:1020E00069460648FFF755FA002202212046FEF70E
:1020F0008CFB00201CBD0000000801402C020020C9
:1021000073B51F4C064601A9206802689047401C21
:10211000F9D09DF80400FF2830D1206801A9026899
:102120009047401CF9D09DF80400FF2826D1206874
:1021300001A902689047401CF9D09DF804000128CD
:102140001CD1FF2086F8380086F83900012086F877
:102150003A00206801A902689047401CF9D013207A
:1021600086F83B00042520687119383102689047D1
:10217000401CF8D06D1CEDB2172DF4D300207CBDAF
:102180002400002010B5502080F31188BFF34F8F3A
:10219000BFF36F8F01F074FA18B104494FF080500B
:1021A0000860002080F3118810BD000004ED00E0FD
:1021B00030B58FB028216846FEF73BF814210AA8F5
:1021C000FEF737F801210804CDE90010002402943D
:1021D00002250491CDE90750000109906846FEF7F9
:1021E00005FD0F20CDE90A056802CDE90C4002216A
:1021F0000AA80E94FEF7CAFB0FB030BD0D48016867
:1022000041F00101016041680B4A114041600168E1
:102210000A4A11400160016821F48021016041688F
:1022200021F4FE0141604FF41F0181600449C003A5
:1022300008607047001002400000FFF8FFFFF6FE44
:1022400008ED00E070B5194C034600252068012216
:1022500000F10B01082B27D2DFE803F02604080C5D
:102260001014191DBDE87040FFF750BDBDE8704067
:10227000FFF702BCBDE87040FEF7B8B8BDE870409B
:10228000FFF7B2BD827205234372C27208E0BDE857
:102290007040FFF789BD8272072343720323C37224
:1022A000836A98472068857070BD00003C0000205C
:1022B00010B5482000F0C2FD0021017004460171F4
:1022C000032060714520A0712181A183044820640E
:1022D00004486064044800F047FD204610BD00003B
:1022E000412400087D2300086524000830B5224AF7
:1022F000002423461578052D00D313705578052D3D
:1023000000D353700423C5185B1C95F83050DBB222
:102310002C44E4B2062BF6D390F83630A3420FD10A
:1023200090F837300D2B02D00A2B05D008E090F83A
:1023300038300A2B06D003E090F838300D2B01D04E
:10234000002030BD8379412B0BD0452B12D1838ED9
:102350005BBA0B80117800EB4100491C03811170BE
:1023600008E0838E5BBA0B80517800EB4100491C7A
:1023700083835170012030BD0C00002073B50646E8
:1023800082B00020ADF800009DF80C00B0714FF451
:10239000FA74412826D0452849D1FF23012225A1DE
:1023A0002548FFF7F6F82046FEF724F9FF2301221F
:1023B00003A92148FFF7EDF82046FEF71BF9002599
:1023C000FF2301221DA11C48FFF7E3F82046FEF77A
:1023D00011F969463046FFF789FF6D1CEDB2052DF6
:1023E000EED324E0FF23012212A11348FFF7D1F816
:1023F00025462046FEF7FEF8FF23012203A90E48DA
:10240000FFF7C7F82846FEF7F5F80024FF2301225E
:102410000AA10948FFF7BDF82846FEF7EBF8694620
:102420003046FFF763FF641CE4B2052CEED304B022
:10243000002070BD520000006C0200204700000028
:1024400010B50170064811B1012906D101E0002242
:1024500000E001220221FEF7D8F9002010BD0000A3
:10246000000C014073B5224C054601A920680268A2
:102470009047401CF9D09DF80400522835D12068BF
:1024800001A902689047401CF9D09DF80400542827
:102490002BD1206801A902689047401CF9D09DF813
:1024A0000400012821D1206801A902689047401C3E
:1024B000F9D09DF80400022817D1522085F8300089
:1024C000542085F83100012085F83200022085F87B
:1024D000330004262068A919303102689047401C57
:1024E000F8D0761CF6B2092EF4D300207CBD000093
:1024F000280000200148FEF7F8BD0000AC020020D3
:102500000148FEF7F2BD00006C010020F0B5026842
:102510001C4B1D4D1D4E1E4F1E4C4FF0804C9842C3
:1025200009D0A04207D0604505D0A84203D0B042F0
:1025300001D0B84204D122F0700E4A6842EA0E027D
:10254000984209D0A04207D0604505D0A84203D0E8
:10255000B04201D0B84203D122F44075CA682A4380
:1025600022F080054A692A4302608A68C2620A68CA
:102570008262984201D0A04201D109690163012120
:102580004161F0BD002C0140000400400008004003
:10259000000C00400034014010B5846842EA032278
:1025A00024F47F440A432243826010BD826822F0F3
:1025B00070020A4342F007018160704710B5036A58
:1025C000046A24F001040462846924F0F00444EAFB
:1025D000021423F00A020A438461026210BD10B59E
:1025E000036A23F0100303628369046A23F47043CF
:1025F00043EA023224F0A00343EA0111826101623E
:1026000010BD000038B50A48FEF740FE084C2068AF
:1026100040688DF800004FF47A7301226946204625
:10262000FEF7B7FF21686FF02000086038BD00009A
:10263000AC01002010B5406A0021C185C184FEF7BD
:1026400024FE10BD0168CA6822F49072CA60016855
:102650004A6922F001024A61202180F83A1070474D
:1026600010B590F83A10222901D0022010BD8168DF
:10267000B1F5805F11D00169002901681FD0496858
:1026800001F07F03816A4A1C82620B70C18D491E72
:102690000904090CC18518D02BE00269816A002A5F
:1026A0000268526805D0D2B20A80816A491C8162F0
:1026B000ECE7C2F308020A80816A891CF7E74A68DE
:1026C000816A4B1C83620A70E0E70168CA6822F0E5
:1026D0002002CA600168CA6822F48072CA60016878
:1026E0004A6922F001024A61202180F83A10FEF77F
:1026F0004FFF002010BD00002DE9F04104460068A6
:102700000169E26821F44051114301612169A06827
:102710000843616908432168CA6841F20C639A431F
:102720000243CA6020684169A26921F440711143E3
:1027300041614C4920686425322688423CD1FEF72D
:102740000BFA00EBC00101EB001061688900B0FBDF
:10275000F1F7FEF701FA00EBC00101EB0010616830
:10276000B0468900B0FBF1F0B0FBF5F06FF0180156
:10277000484307EB800106EB0110B0FBF5F000F0D9
:10278000F006FEF7E9F900EBC00101EB001061680B
:102790008900B0FBF1F0B0FBF5F006EB0016FEF798
:1027A000DBF900EBC00101EB001061688900B0FBB0
:1027B000F1F7FEF7D1F93BE0FEF7BEF900EBC001FF
:1027C00001EB001061688900B0FBF1F7FEF7B4F986
:1027D00000EBC00101EB00106168B0468900B0FB5E
:1027E000F1F0B0FBF5F06FF01801484307EB800102
:1027F00006EB0110B0FBF5F000F0F006FEF79CF9D7
:1028000000EBC00101EB001061688900B0FBF1F042
:10281000B0FBF5F006EB0016FEF78EF900EBC001F9
:1028200001EB001061688900B0FBF1F7FEF784F955
:1028300000EBC00101EB001061688900B0FBF1F012
:10284000B0FBF5F06FF01801484307EB800108EB8F
:102850000110B0FBF5F0216800F00F0030448860F3
:10286000BDE8F0810038014090F83910212901D0ED
:10287000022070478168B1F5805F016A0BD04A1C65
:102880000262026809785160C18C491E0904090C72
:10289000C1840ED017E009880268C1F308015160B5
:1028A00001690029016A02D0491C0162ECE7891C18
:1028B000FBE70168CA6822F08002CA600068C1684C
:1028C00041F04001C160002070472DE9F041984679
:1028D00017460E460446069D1DE0681C1BD02DB110
:1028E000FDF798FFA0EB0800A84214D92068C16842
:1028F00021F4D071C1602068416921F0010141617A
:10290000202084F8390084F83A00002084F8380048
:102910000320BDE8F0812068006836EA000004D09A
:102920000020B842D9D00020F3E70120F9E70000E9
:1029300010B50748FEF7AAFC054C20684068054919
:102940000968884721686FF02000086010BD00000A
:10295000EC0100206800002010B50748FEF796FC47
:10296000054C2068406805494968884721686FF030
:102970002000086010BD00002C020020680000202C
:1029800010B50748FEF782FC054C206840680549F1
:102990008968884721686FF02000086010BD00003A
:1029A0006C0200206800002070B52C2000F046FA70
:1029B000F22303700122427000218170C270017104
:1029C0004171F32585710446C371A2202072A27261
:1029D000E17325740449616204490548A16200F06D
:1029E00007F9204670BD0000F52900083D2A0008BF
:1029F000CD2A000810B5002201214318491C5B7C38
:102A0000C9B25A400629F8D3C17D914208D1017E4E
:102A1000F32905D1017D81704172817D017142717F
:102A2000417A022901D0012100E0042181721021A4
:102A30001130FDF7FEFB002010BD00002DE9FF4125
:102A400014468272C2798DF80020027A8DF8012036
:102A500042788DF80220427A8DF80320827A002392
:102A60008DF804201A466D4604E08E5CAF18521CA7
:102A70007E71D2B2A242F8D30021221D04E06E186A
:102A800076787340491CC9B29142F8D329190122C2
:102A90004B71C373F32088710A4E550229463046A4
:102AA000FDF7B3FEFF23E21D69460748FEF771FDFF
:102AB000002229463046FDF7A8FE04B00020BDE8FC
:102AC000F081000000100140EC01002073B51A4CA9
:102AD000064601A9206802689047401CF9D09DF87D
:102AE0000400F22825D1206801A902689047401C03
:102AF000F9D09DF8040001281BD1206801A90268C3
:102B00009047401CF9D09DF80400A22811D1F22072
:102B100070740120B074A220F0740325206871192C
:102B2000113102689047401CF8D06D1CEDB2082DA1
:102B3000F4D300207CBD00002C000020FEE7000044
:102B400010B5082000F07AF90446044820600448D3
:102B50006060044800F046F8204610BD692B00086C
:102B6000A52B0008A92B00080C4810B50246837855
:102B700052782BB90378934202D14FF0FF3010BD49
:102B8000074C0023A45C0C70521CD1B24170202968
:102B900001D143708370002010BD000002000020AE
:102BA000EC0000200020704730B50C4901230A4694
:102BB0008C781278012C04D14C78A24201D1981E55
:102BC00030BD074D0024A854521CD0B208702028F4
:102BD00001D10C708B70002030BD0000020000207D
:102BE000EC000020014908600020704768000020C8
:102BF00001494864002070471800002010B50820E3
:102C000000F01CF904460448206004486060044851
:102C100000F046F8204610BD252C0008612C000865
:102C2000652C00080C4810B50246837852782BB901
:102C30000378934202D14FF0FF3010BD074C0023C0
:102C4000A45C0C70521CD1B24170402901D1437078
:102C50008370002010BD0000050000200C01002042
:102C60000020704730B50C4901230A468C78127851
:102C7000012C04D14C78A24201D1981E30BD074DE1
:102C80000024A854521CD0B20870402801D10C7006
:102C90008B70002030BD0000050000200C010020DA
:102CA000014948600020704768000020014988649D
:102CB000002070471800002010B5042000F0BEF876
:102CC00004460448206004486060044800F046F868
:102CD000204610BDE12C00081D2D0008212D000804
:102CE0000C4810B50246837852782BB9037893428A
:102CF00002D14FF0FF3010BD074C0023A45C0C70D4
:102D0000521CD1B24170202901D143708370002040
:102D100010BD0000080000204C010020002070477A
:102D200030B50C4901230A468C781278012C04D165
:102D30004C78A24201D1981E30BD074D0024A85402
:102D4000521CD0B20870202801D10C708B7000206A
:102D500030BD0000080000204C01002001498860BF
:102D600000207047680000200149C86400207047B7
:102D70001800002002E008C8121F08C1002AFAD17A
:102D800070477047002001E001C1121F002AFBD1EB
:102D900070470000FDF74CFDFFF70AFAFEF708FD4B
:102DA000FEF7BAFDFEF7D4FDFEF7EEFDFEF708FED6
:102DB000FEF77EFDFEF794FC16480068C16841F0FE
:102DC0002001C16014480068C16841F02001C16061
:102DD00012480068C16841F02001C16010480068D5
:102DE000C16841F02001C16000224FF400710D481C
:102DF000FDF70BFD002202210B48FDF706FD002226
:102E000002210A48FDF701FDFEF77CFC00F053F8B3
:102E1000FEE70000AC010020EC0100202C020020A5
:102E20006C0200200010014000080140000C01402D
:102E300001460020842900D0C81C7047F0B50B3033
:102E4000154D20F007010024144A0FE003688B425F
:102E50000BD38B4205D95E1A43184768C3E9006754
:102E600000E04368136002C004E0021D10680028FF
:102E7000ECD12046002802D1286808B10020F0BD1E
:102E8000064A07481060074A121A22F00702C0E9F2
:102E9000002401202860D7E7E8000020E40000209B
:102EA000E40F0020E011002010B500B9012000F06F
:102EB000F1FA002010BD10B500F012FB002010BD8B
:102EC0003EB504460D46B0F90800FFF7B1FF02A970
:102ED000CDE90001208A2B4682B2D4E9001000F02F
:102EE000A3FB012801D000203EBD02983EBD00009A
:102EF0002DE9F041184C0F460546E6682068001D94
:102F000000F012FA38B9206890F82C10012088409F
:102F1000216981432161681C07D137B12168BDE86F
:102F2000F0410E48091D00F037BA20683544B5421B
:102F30004560216805D2A06BBDE8F041091D00F095
:102F400013BA606B091D00F00FFAA06A854200D227
:102F5000A562BDE8F081000084000020C8030020C5
:102F60002DE9F041054600F023FA2E4CA068401CE4
:102F7000A06020682C4F10B1606940B32DE025603F
:102F8000A068012829D1002606EB860007EB800007
:102F900000F0DCF9761C072EF6D323488C3000F0C5
:102FA000D5F92148A03000F0D1F91F48B43000F025
:102FB000CDF91D48C83000F0C9F91B48DC3000F0DD
:102FC000C5F919488C3060631430A06305E02068AF
:102FD000E96AC06A884200D82560606A401C606265
:102FE000E96A0120226988401043206101EB8100D9
:102FF00007EB8000291D00F0CFF900F0F9F96069B6
:1030000000280CD02068E96AC06A884207D20749C4
:103010004FF080500860BFF34F8FBFF36F8FBDE854
:10302000F081000084000020EC02002004ED00E0AC
:1030300070B5114E114C17E000F086FA3068B8B147
:1030400000F082FB00F0B4F9F068C568281D00F0BC
:103050006BF9A068401EA0606068401E606000F0D0
:10306000C7F9284600F00CF860680028E4D170BD6C
:1030700000F06AFBF8E70000B403002084000020A1
:1030800010B50446006B00F0C7F92046BDE81040BB
:1030900000F0C2B910484FF44061420706D0C01D8D
:1030A0000D4920F00700411AC1F540610B4A002389
:1030B0000144C2E900030839103A21F00701116008
:1030C0004B600B600B1AC0E9001393604FF0004097
:1030D0005360D06070470000DC030020D000002067
:1030E000074C4FF08056074DFFF7A2FF20680128DC
:1030F000FAD92E60BFF34F8FBFF36F8FF4E7000054
:10310000EC02002004ED00E02DE9F0479A46DDE9ED
:10311000098481466FF00303206B03EB82021044A5
:10312000089D20F00706700707D0502080F3118813
:10313000BFF34F8FBFF36F8FFEE723180A5C83F84E
:1031400034200A5C12B1401C1028F6D3002784F802
:103150004370072D00D30625E562C4E91157201DF1
:1031600000F0FFF804F1180000F0FBF82461C5F14D
:1031700007006462A061E76484F8507052464946D3
:10318000304600F0BFF82060B8F1000F01D0C8F859
:103190000040BDE8F087000030B5114900E011465D
:1031A0000A688242FBD34B685C18844203D14068B2
:1031B00018444860084643681C18944209D1084CDA
:1031C000103C2468A24209D052681A4442600A683E
:1031D00012680260814200D0086030BD0460F9E7E7
:1031E000D00000200648416B096829B1416BC968CD
:1031F000C9684968816270474FF0FF31FAE7000003
:103200008400002008484068401C4FF0500080F3C4
:10321000118804D0BFF34F8FBFF36F8FFEE7BFF36A
:103220004F8FBFF36F8FFEE7D80000202DE9F041EC
:103230000546002700F088F9314E306808B9FFF7DD
:1032400029FFF06805424BD1C5B3083568070ED099
:1032500005F00700C0F108000544680707D05020BA
:1032600080F31188BFF34F8FBFF36F8FFEE72DB34D
:103270007068854234D82248103001460C6801E05D
:1032800020460C466168A94202D221680029F7D184
:1032900031688C4224D00768216801606068083773
:1032A000411B10290FD96019420708D0502080F324
:1032B0001188BFF34F8FBFF36F8FFEE710E04160BF
:1032C0006560FFF769FF61687068401A7060B268F6
:1032D000904200D2B060F06801430020C4E90001D0
:1032E00000F032FA780707D0502080F31188BFF33E
:1032F0004F8FBFF36F8FFEE73846BDE8F0810000C7
:10330000C000002010B5031F4FF080741C601B1F0D
:1033100021F001011960191F024B0B60143940386C
:103320000A6010BD05320008D0E9013201699A60D7
:10333000D0E901235A604A68824201D182684A601A
:10334000002202610868401E0860704700F1080111
:103350004FF0FF32C0E90112C1600161002101603C
:10336000704700210161704730B50B685A1C02D0CC
:1033700000F1080202E0026904E022465468256870
:103380009D42FAD953684B6099608A605160086128
:103390000168491C016030BD42684A6093688B60D7
:1033A00093685960916008610168491C0160704729
:1033B000502080F31188BFF34F8FBFF36F8F0A49FE
:1033C0004868401C486001280CD10848006810F08B
:1033D000FF0F07D0502080F31188BFF34F8FBFF34A
:1033E0006F8FFEE770470000D800002004ED00E07A
:1033F0000849486828B1401E486001D180F311880F
:103400007047502080F31188BFF34F8FBFF36F8F49
:10341000FEE70000D800002070B5002827D0144D2A
:10342000A0F108046168E868014207D1502080F3E8
:103430001188BFF34F8FBFF36F8FFEE722683AB159
:10344000502080F31188BFF34F8FBFF36F8FFEE7DB
:103450008143616000F078F86068696808446860DA
:103460002046FFF799FEBDE8704000F06DB970BDD1
:10347000C000002006484FF47A710068B0FBF1F1FB
:103480004FF0E020491E41610721016170470000B3
:103490007400002010B5020014D00F48006B38B142
:1034A000502080F31188BFF34F8FBFF36F8FFEE77B
:1034B00000F04AF800211046FFF71AFD00F044F929
:1034C000002807D105494FF080500860BFF34F8FA7
:1034D000BFF36F8F10BD00008400002004ED00E0FA
:1034E0001CB515480024CDE900402346402213A115
:1034F000144800F099F8012809D0401C1AD1502036
:1035000080F31188BFF34F8FBFF36F8FFEE750201A
:1035100080F31188BFF34F8FBFF36F8F06484FF0D2
:10352000FF312C38816201214161C460BDE81C403B
:1035300000F040B81CBD0000B000002049444C45DC
:1035400000000000E13000080248016B491C0163E3
:1035500070470000840000201448016B11B1012164
:10356000C16170470021C1610169B1FA81F1C1F106
:103570001F0101EB81020E4951F822306BB101EBC2
:10358000820101F108034A6852684A609A4201D1F7
:1035900052684A60D16801607047502080F31188FA
:1035A000BFF34F8FBFF36F8FFEE700008400002052
:1035B000EC0200201CB5194908780190FF20087022
:1035C00008788DF800009DF80000154A00F05000C2
:1035D00010700720906005E09DF800305B008DF8CA
:1035E0000030401E9DF800301B06F5D4000200F4A8
:1035F000E0609060019808700A48016841F4700129
:103600000160016841F070410160FFF733FF002065
:103610005060FCF7A9FD00201CBD000000E400E0A4
:10362000D800002020ED00E02DE9FF5F8346DDE9B2
:103630000E87994616468A469000FFF7F7FD05006B
:103640001AD05420FFF7F2FD040012D025630021A8
:10365000CDE90241CDE900874B46324651465846F6
:10366000FFF752FD2046FFF77BFC012004B0BDE8C8
:10367000F09F2846FFF7D0FE4FF0FF30F6E700003E
:103680002DE9F0412E4C0027206B40B1A069401C71
:10369000A061E06900B101273846BDE8F081E66825
:1036A000761CE66013D1606B006838B1502080F35F
:1036B0001188BFF34F8FBFF36F8FFEE7606BA16B75
:1036C0006163A063206A401C2062FFF78BFDA06A43
:1036D000DFF87080864209D3606B006880B1606B50
:1036E000C068C568686886420DD2A0622068C06A5A
:1036F00000EB800158F821000128CAD90127C8E74A
:103700004FF0FF30F1E7281DFFF70EFEA86A18B151
:1037100005F11800FFF708FEE86A012122698140DF
:103720001143216100EB800108EB8100291DFFF7A7
:1037300033FEE86A2168C96A8842CDD30127CBE706
:1037400084000020EC0200202DE9F0472C4D0024DD
:103750002746286B38B1FFF72BFE286B401E2863E5
:10376000286B40B146E0502080F31188BFF34F8FA3
:10377000BFF36F8FFEE7A968224E0120D1B3A6F1F7
:10378000B40980463068E8B1F068C46804F11800F4
:10379000FFF7CAFD201DFFF7C7FDE06A2A6908FA96
:1037A00000F11143296100EB800109EB8100211D2B
:1037B000FFF7F2FDE06A2968C96A8842E2D3C5F8DA
:1037C0001C80DFE70CB1FFF70DFDAC6944B1464644
:1037D000FFF756FF00B1EE61641EF9D10020A86129
:1037E000E86938B10849012738070860BFF34F8FEF
:1037F000BFF36F8FFFF7FCFD3846BDE8F087000090
:1038000084000020A003002004ED00E0F838000848
:10381000591E0008FDFF00000000000040000000ED
:10382000B0380008BD1E0008FDFF000000000000C9
:1038300040000000BC380008DD1E0008FDFF00004D
:103840000000000040000000C8380008051F000804
:10385000FDFF00000000000040000000D438000818
:103860001D1F0008FDFF00000000000040000000D8
:10387000E0380008351F0008FDFF000000000000D0
:1038800040000000EC3800084D1F0008FDFF00005C
:1038900000000000400000000000000000000000E8
:1038A00001020304060708090000000001020304E6
:1038B0006D795461736B3032000000006D79546192
:1038C000736B3033000000006D795461736B3034DA
:1038D000000000006D795461736B3035000000000A
:1038E0006D795461736B3036000000006D7954615E
:1038F000736B30370000000064656661756C74544A
:1039000061736B002439000800000020EC00000007
:10391000742D0008103A0008EC000020F414000098
:10392000842D0008000000000000000000000001DD
:103930000000000000000000000000000000000087
:103940000000000000000000000000000000000077
:103950000000000000000000000000000000000067
:103960000000000000000000000000000000000057
:103970000000000000000000000000000000000047
:103980000000000000000000000000000000000037
:10399000000000000000000000A24A040100000036
:1039A0001000000000000000000000000000000007
:1039B0000000000000000000000000000000000007
:1039C00000000000000000000000000000000000F7
:1039D00000000000000000000000000000000000E7
:1039E00000000000000000000000000000000000D7
:1039F00000000000000000000000000000000000C7
:103A0000AAAAAAAA0000000000000000000000000E
:0400000508000131BD
:00000001FF
